{
  "transactions": [
    {
      "hash": "0x620db33499ece50d5392e7c7b51d8b3fcef710f827bcbe11a8ddad2b2641f054",
      "transactionType": "CALL",
      "contractName": null,
      "contractAddress": "0xFE1B064c8443aAEdAD23500C13323714E15C929c",
      "function": "compensate((uint256,uint256,uint256))",
      "arguments": [
        "(2, 2, 6000000)"
      ],
      "transaction": {
        "type": "0x02",
        "from": "0x979af411d048b453e3334c95f392012b3bbd6215",
        "to": "0xfe1b064c8443aaedad23500c13323714e15c929c",
        "gas": "0x5dfd3",
        "value": "0x0",
        "data": "0x8e5727760000000000000000000000000000000000000000000000000000000000000002000000000000000000000000000000000000000000000000000000000000000200000000000000000000000000000000000000000000000000000000005b8d80",
        "nonce": "0x2b",
        "accessList": []
      },
      "additionalContracts": [],
      "isFixedGasLimit": false
    }
  ],
  "receipts": [
    {
      "transactionHash": "0x620db33499ece50d5392e7c7b51d8b3fcef710f827bcbe11a8ddad2b2641f054",
      "transactionIndex": "0x34",
      "blockHash": "0xfd09ecf5c62429b2b7d8414863eae0ae1dfe36d714a1f502bdbc77ab52cb0b04",
      "blockNumber": "0x500943",
      "from": "0x979Af411D048b453E3334C95F392012B3BbD6215",
      "to": "0xFE1B064c8443aAEdAD23500C13323714E15C929c",
      "cumulativeGasUsed": "0x2899a7",
      "gasUsed": "0x440bf",
      "contractAddress": null,
      "logs": [
        {
          "address": "0xFE1B064c8443aAEdAD23500C13323714E15C929c",
          "topics": [
            "0x016d78045033c05583b0015db279cb36d1a0c3f2d8a52695dc17867864286c05",
            "0x0000000000000000000000000000000000000000000000000000000000000002",
            "0x0000000000000000000000000000000000000000000000000000000000000002"
          ],
          "data": "0x00000000000000000000000000000000000000000000000000000000005b8d80",
          "blockHash": "0xfd09ecf5c62429b2b7d8414863eae0ae1dfe36d714a1f502bdbc77ab52cb0b04",
          "blockNumber": "0x500943",
          "transactionHash": "0x620db33499ece50d5392e7c7b51d8b3fcef710f827bcbe11a8ddad2b2641f054",
          "transactionIndex": "0x34",
          "logIndex": "0x2d",
          "removed": false
        },
        {
          "address": "0x73599025DA3c1Bf903AfAF08689C6FBa7336DD5f",
          "topics": [
            "0xddf252ad1be2c89b69c2b068fc378daa952ba7f163c4a11628f55a4df523b3ef",
            "0x000000000000000000000000979af411d048b453e3334c95f392012b3bbd6215",
            "0x000000000000000000000000ab64885b2368a60a9aa19d8a0583d0fd81ac2f30"
          ],
          "data": "0x0000000000000000000000000000000000000000000000000000000c8c14ed78",
          "blockHash": "0xfd09ecf5c62429b2b7d8414863eae0ae1dfe36d714a1f502bdbc77ab52cb0b04",
          "blockNumber": "0x500943",
          "transactionHash": "0x620db33499ece50d5392e7c7b51d8b3fcef710f827bcbe11a8ddad2b2641f054",
          "transactionIndex": "0x34",
          "logIndex": "0x2e",
          "removed": false
        },
        {
          "address": "0xfe1C50468Aa725985597DC5F4BAEa3b7C0ef485E",
          "topics": [
            "0xddf252ad1be2c89b69c2b068fc378daa952ba7f163c4a11628f55a4df523b3ef",
            "0x000000000000000000000000979af411d048b453e3334c95f392012b3bbd6215",
            "0x0000000000000000000000000000000000000000000000000000000000000000"
          ],
          "data": "0x0000000000000000000000000000000000000000000000000000000000000085",
          "blockHash": "0xfd09ecf5c62429b2b7d8414863eae0ae1dfe36d714a1f502bdbc77ab52cb0b04",
          "blockNumber": "0x500943",
          "transactionHash": "0x620db33499ece50d5392e7c7b51d8b3fcef710f827bcbe11a8ddad2b2641f054",
          "transactionIndex": "0x34",
          "logIndex": "0x2f",
          "removed": false
        },
        {
          "address": "0xfe1C50468Aa725985597DC5F4BAEa3b7C0ef485E",
          "topics": [
            "0xddf252ad1be2c89b69c2b068fc378daa952ba7f163c4a11628f55a4df523b3ef",
            "0x000000000000000000000000979af411d048b453e3334c95f392012b3bbd6215",
            "0x0000000000000000000000000000000000000000000000000000000000000000"
          ],
          "data": "0x00000000000000000000000000000000000000000000000000000000005b8d80",
          "blockHash": "0xfd09ecf5c62429b2b7d8414863eae0ae1dfe36d714a1f502bdbc77ab52cb0b04",
          "blockNumber": "0x500943",
          "transactionHash": "0x620db33499ece50d5392e7c7b51d8b3fcef710f827bcbe11a8ddad2b2641f054",
          "transactionIndex": "0x34",
          "logIndex": "0x30",
          "removed": false
        },
        {
          "address": "0xFE1B064c8443aAEdAD23500C13323714E15C929c",
          "topics": [
            "0x8bdc48b9c812b3df4dcc43e91df931ba13141e875e4c6bfc1275639830f57eef",
            "0x0000000000000000000000000000000000000000000000000000000000000004",
            "0x000000000000000000000000979af411d048b453e3334c95f392012b3bbd6215",
            "0x000000000000000000000000979af411d048b453e3334c95f392012b3bbd6215"
          ],
          "data": "0x0000000000000000000000000000000000000000000000000000000000000002000000000000000000000000000000000000000000000000000000000000000200000000000000000000000000000000000000000000000000000000005b8d80",
          "blockHash": "0xfd09ecf5c62429b2b7d8414863eae0ae1dfe36d714a1f502bdbc77ab52cb0b04",
          "blockNumber": "0x500943",
          "transactionHash": "0x620db33499ece50d5392e7c7b51d8b3fcef710f827bcbe11a8ddad2b2641f054",
          "transactionIndex": "0x34",
          "logIndex": "0x31",
          "removed": false
        }
      ],
      "status": "0x1",
      "logsBloom": "0x04000000000200000000000000000000000000000000000000000000000000000000000000000000000000000000000000200000000002000180000000000000000000100000000040000008000000000000000000200000000000000000004008000000020000000000000000000800000000000000000000000010000000000000000000000000000000000000000000010000000000400000000000010000000000040000000000000102000000000000000000000000082000000000000000000002000000000200200000000000000008008000000000000000000020000004000000000000000000000000000800000000008000000080000000000000",
      "type": "0x2",
      "effectiveGasPrice": "0x32a33b8cb"
    }
  ],
  "libraries": [],
  "pending": [],
  "returns": {},
  "timestamp": 1707400020,
  "chain": 11155111,
  "multi": false,
  "commit": "1bf49db"
}