{
  "transactions": [
    {
      "hash": "0x2cd332b8e3398182d2a8abb43b73e319348fc5971c5dfb543dc0f53f46b500f7",
      "transactionType": "CALL",
      "contractName": null,
      "contractAddress": "0xFE1B064c8443aAEdAD23500C13323714E15C929c",
      "function": "borrowerExit((uint256,address))",
      "arguments": [
        "(1, 0x979Af411D048b453E3334C95F392012B3BbD6215)"
      ],
      "transaction": {
        "type": "0x02",
        "from": "0x979af411d048b453e3334c95f392012b3bbd6215",
        "to": "0xfe1b064c8443aaedad23500c13323714e15c929c",
        "gas": "0x79c7d",
        "value": "0x0",
        "data": "0x18719d5f0000000000000000000000000000000000000000000000000000000000000001000000000000000000000000979af411d048b453e3334c95f392012b3bbd6215",
        "nonce": "0x2a",
        "accessList": []
      },
      "additionalContracts": [
        {
          "transactionType": "CREATE",
          "address": "0xBD749287a579fC46e773DFb22971a3DF35DBA970",
          "initCode": "0x3d602d80600a3d3981f3363d3d373d3d3d363d739d69eee9a7b604dc3d8ceeb37cdf0233290762ca5af43d82803e903d91602b57fd5bf3"
        }
      ],
      "isFixedGasLimit": false
    }
  ],
  "receipts": [
    {
      "transactionHash": "0x2cd332b8e3398182d2a8abb43b73e319348fc5971c5dfb543dc0f53f46b500f7",
      "transactionIndex": "0x36",
      "blockHash": "0x43a15ed351b83aec36706b43e4bfef263ec2bf45879afd61f61acf51b2fc070b",
      "blockNumber": "0x500926",
      "from": "0x979Af411D048b453E3334C95F392012B3BbD6215",
      "to": "0xFE1B064c8443aAEdAD23500C13323714E15C929c",
      "cumulativeGasUsed": "0x2e7c2e",
      "gasUsed": "0x582b1",
      "contractAddress": null,
      "logs": [
        {
          "address": "0xFE1B064c8443aAEdAD23500C13323714E15C929c",
          "topics": [
            "0xf50ca305fd863aaad9e46c7156ad990b20a548e9e612e7f1b0c7e38680ca4ee0",
            "0x0000000000000000000000000000000000000000000000000000000000000001"
          ],
          "data": "0x000000000000000000000000979af411d048b453e3334c95f392012b3bbd6215",
          "blockHash": "0x43a15ed351b83aec36706b43e4bfef263ec2bf45879afd61f61acf51b2fc070b",
          "blockNumber": "0x500926",
          "transactionHash": "0x2cd332b8e3398182d2a8abb43b73e319348fc5971c5dfb543dc0f53f46b500f7",
          "transactionIndex": "0x36",
          "logIndex": "0x1f",
          "removed": false
        },
        {
          "address": "0x1e26004a8AB552F980Dc8Abe99706b9a4e52a08A",
          "topics": [
            "0xddf252ad1be2c89b69c2b068fc378daa952ba7f163c4a11628f55a4df523b3ef",
            "0x000000000000000000000000a7efde65a861bb0d4c622f79099b1cc4eaa2710a",
            "0x000000000000000000000000a7efde65a861bb0d4c622f79099b1cc4eaa2710a"
          ],
          "data": "0x0000000000000000000000000000000000000000000000000000000000000000",
          "blockHash": "0x43a15ed351b83aec36706b43e4bfef263ec2bf45879afd61f61acf51b2fc070b",
          "blockNumber": "0x500926",
          "transactionHash": "0x2cd332b8e3398182d2a8abb43b73e319348fc5971c5dfb543dc0f53f46b500f7",
          "transactionIndex": "0x36",
          "logIndex": "0x20",
          "removed": false
        },
        {
          "address": "0x1e26004a8AB552F980Dc8Abe99706b9a4e52a08A",
          "topics": [
            "0x4beccb90f994c31aced7a23b5611020728a23d8ec5cddd1a3e9d97b96fda8666",
            "0x000000000000000000000000a7efde65a861bb0d4c622f79099b1cc4eaa2710a",
            "0x000000000000000000000000a7efde65a861bb0d4c622f79099b1cc4eaa2710a"
          ],
          "data": "0x00000000000000000000000000000000000000000000000000000000000000000000000000000000000000000000000000000000033b2e3c9fd0803ce8000000",
          "blockHash": "0x43a15ed351b83aec36706b43e4bfef263ec2bf45879afd61f61acf51b2fc070b",
          "blockNumber": "0x500926",
          "transactionHash": "0x2cd332b8e3398182d2a8abb43b73e319348fc5971c5dfb543dc0f53f46b500f7",
          "transactionIndex": "0x36",
          "logIndex": "0x21",
          "removed": false
        },
        {
          "address": "0xFE1B064c8443aAEdAD23500C13323714E15C929c",
          "topics": [
            "0x61d77434230bc4628b3ed22c0c8e26455cdc6f3cafeb2f032ea3b8e375822ab1",
            "0x000000000000000000000000ab64885b2368a60a9aa19d8a0583d0fd81ac2f30",
            "0x000000000000000000000000bd749287a579fc46e773dfb22971a3df35dba970"
          ],
          "data": "0x",
          "blockHash": "0x43a15ed351b83aec36706b43e4bfef263ec2bf45879afd61f61acf51b2fc070b",
          "blockNumber": "0x500926",
          "transactionHash": "0x2cd332b8e3398182d2a8abb43b73e319348fc5971c5dfb543dc0f53f46b500f7",
          "transactionIndex": "0x36",
          "logIndex": "0x22",
          "removed": false
        },
        {
          "address": "0xBD749287a579fC46e773DFb22971a3DF35DBA970",
          "topics": [
            "0x8be0079c531659141344cd1fd0a4f28419497f9722a3daafe3b4186f6b6457e0",
            "0x0000000000000000000000000000000000000000000000000000000000000000",
            "0x000000000000000000000000fe1b064c8443aaedad23500c13323714e15c929c"
          ],
          "data": "0x",
          "blockHash": "0x43a15ed351b83aec36706b43e4bfef263ec2bf45879afd61f61acf51b2fc070b",
          "blockNumber": "0x500926",
          "transactionHash": "0x2cd332b8e3398182d2a8abb43b73e319348fc5971c5dfb543dc0f53f46b500f7",
          "transactionIndex": "0x36",
          "logIndex": "0x23",
          "removed": false
        },
        {
          "address": "0xBD749287a579fC46e773DFb22971a3DF35DBA970",
          "topics": [
            "0xc7f505b2f371ae2175ee4913f4499e1f2633a7b5936321eed1cdaeb6115181d2"
          ],
          "data": "0x0000000000000000000000000000000000000000000000000000000000000001",
          "blockHash": "0x43a15ed351b83aec36706b43e4bfef263ec2bf45879afd61f61acf51b2fc070b",
          "blockNumber": "0x500926",
          "transactionHash": "0x2cd332b8e3398182d2a8abb43b73e319348fc5971c5dfb543dc0f53f46b500f7",
          "transactionIndex": "0x36",
          "logIndex": "0x24",
          "removed": false
        },
        {
          "address": "0x1e26004a8AB552F980Dc8Abe99706b9a4e52a08A",
          "topics": [
            "0xddf252ad1be2c89b69c2b068fc378daa952ba7f163c4a11628f55a4df523b3ef",
            "0x000000000000000000000000a7efde65a861bb0d4c622f79099b1cc4eaa2710a",
            "0x000000000000000000000000bd749287a579fc46e773dfb22971a3df35dba970"
          ],
          "data": "0x00000000000000000000000000000000000000000000000000000000000f4240",
          "blockHash": "0x43a15ed351b83aec36706b43e4bfef263ec2bf45879afd61f61acf51b2fc070b",
          "blockNumber": "0x500926",
          "transactionHash": "0x2cd332b8e3398182d2a8abb43b73e319348fc5971c5dfb543dc0f53f46b500f7",
          "transactionIndex": "0x36",
          "logIndex": "0x25",
          "removed": false
        },
        {
          "address": "0x1e26004a8AB552F980Dc8Abe99706b9a4e52a08A",
          "topics": [
            "0x4beccb90f994c31aced7a23b5611020728a23d8ec5cddd1a3e9d97b96fda8666",
            "0x000000000000000000000000a7efde65a861bb0d4c622f79099b1cc4eaa2710a",
            "0x000000000000000000000000bd749287a579fc46e773dfb22971a3df35dba970"
          ],
          "data": "0x00000000000000000000000000000000000000000000000000000000000f42400000000000000000000000000000000000000000033b2e3c9fd0803ce8000000",
          "blockHash": "0x43a15ed351b83aec36706b43e4bfef263ec2bf45879afd61f61acf51b2fc070b",
          "blockNumber": "0x500926",
          "transactionHash": "0x2cd332b8e3398182d2a8abb43b73e319348fc5971c5dfb543dc0f53f46b500f7",
          "transactionIndex": "0x36",
          "logIndex": "0x26",
          "removed": false
        },
        {
          "address": "0xfe1C50468Aa725985597DC5F4BAEa3b7C0ef485E",
          "topics": [
            "0xddf252ad1be2c89b69c2b068fc378daa952ba7f163c4a11628f55a4df523b3ef",
            "0x000000000000000000000000979af411d048b453e3334c95f392012b3bbd6215",
            "0x000000000000000000000000979af411d048b453e3334c95f392012b3bbd6215"
          ],
          "data": "0x0000000000000000000000000000000000000000000000000000000000000000",
          "blockHash": "0x43a15ed351b83aec36706b43e4bfef263ec2bf45879afd61f61acf51b2fc070b",
          "blockNumber": "0x500926",
          "transactionHash": "0x2cd332b8e3398182d2a8abb43b73e319348fc5971c5dfb543dc0f53f46b500f7",
          "transactionIndex": "0x36",
          "logIndex": "0x27",
          "removed": false
        }
      ],
      "status": "0x1",
      "logsBloom": "0x00000000000200000000000000001000000000000000000002800000000000000000000040000000000000200000000000000000000002000100000000040004000000000000000040000008000000000001000000060000000000000000004000000000020000000000000000000800000024000000000000000010000400400000000000840000010800000000000000000000000280400000000000010000000000000000222000008002000000000080000000000000080000000000000000000402000000100200000000000002000008000004000000000000000060000004000000000000000000000000000000080200000000000000000000400000",
      "type": "0x2",
      "effectiveGasPrice": "0x3ea98d2a5"
    }
  ],
  "libraries": [],
  "pending": [],
  "returns": {},
  "timestamp": 1707399651,
  "chain": 11155111,
  "multi": false,
  "commit": "1bf49db"
}