{
  "transactions": [
    {
      "hash": "0xf89df91895acf82a11cd1729acd9cfac56f2268ef53971bc432618f2068f4c76",
      "transactionType": "CALL",
      "contractName": null,
      "contractAddress": "0xa399A4503A85760D7e8556ac76fAD0714501eF2e",
      "function": "transferOwnership(address)",
      "arguments": [
        "0xD20baecCd9F77fAA9E2C2B185F33483D7911f9C8"
      ],
      "transaction": {
        "type": "0x02",
        "from": "0xf0c7f57f5f889d546f032e50fba953bd7c026350",
        "to": "0xa399a4503a85760d7e8556ac76fad0714501ef2e",
        "gas": "0x9a49",
        "value": "0x0",
        "data": "0xf2fde38b000000000000000000000000d20baeccd9f77faa9e2c2b185f33483d7911f9c8",
        "nonce": "0x105",
        "accessList": []
      },
      "additionalContracts": [],
      "isFixedGasLimit": false
    }
  ],
  "receipts": [
    {
      "transactionHash": "0xf89df91895acf82a11cd1729acd9cfac56f2268ef53971bc432618f2068f4c76",
      "transactionIndex": "0x15",
      "blockHash": "0x95c5105aa62b3815aee59f1803147317c2135a024f12b20b02aa3c2edd785284",
      "blockNumber": "0x54846a",
      "from": "0xf0c7f57f5F889D546F032E50fbA953BD7c026350",
      "to": "0xa399A4503A85760D7e8556ac76fAD0714501eF2e",
      "cumulativeGasUsed": "0x1cb652",
      "gasUsed": "0x6fb4",
      "contractAddress": null,
      "logs": [
        {
          "address": "0xa399A4503A85760D7e8556ac76fAD0714501eF2e",
          "topics": [
            "0x8be0079c531659141344cd1fd0a4f28419497f9722a3daafe3b4186f6b6457e0",
            "0x000000000000000000000000f0c7f57f5f889d546f032e50fba953bd7c026350",
            "0x000000000000000000000000d20baeccd9f77faa9e2c2b185f33483d7911f9c8"
          ],
          "data": "0x",
          "blockHash": "0x95c5105aa62b3815aee59f1803147317c2135a024f12b20b02aa3c2edd785284",
          "blockNumber": "0x54846a",
          "transactionHash": "0xf89df91895acf82a11cd1729acd9cfac56f2268ef53971bc432618f2068f4c76",
          "transactionIndex": "0x15",
          "logIndex": "0x19",
          "removed": false
        }
      ],
      "status": "0x1",
      "logsBloom": "0x00000000000000000000000000000000000008000000000000800000000000000000000000000000000000000000000000000002000200000000000000000000000000000000000000000000000000000001000000000000000800000000000000000000000000002000100000000000000000000000000000000000000000400000000000000000000000000000000000000000000000000000000000000000000040000000000000000000000000000000000000000000000000000000000000000000000000000000000000000800000000000000000000000000008000000000000000000000000000000000000000000000000000000000000000000000",
      "type": "0x2",
      "effectiveGasPrice": "0x2e2b221ed"
    }
  ],
  "libraries": [],
  "pending": [],
  "returns": {},
  "timestamp": 1711124342,
  "chain": 11155111,
  "commit": "c5941cc"
}