{
  "transactions": [
    {
      "hash": "0x8f20025eb271befaeafe0efbe467981c86b1250ad13a12578c24aad15e728a26",
      "transactionType": "CALL",
      "contractName": null,
      "contractAddress": "0xBa0835F1f2AE7F7a56E120E7476b3daB36dd4140",
      "function": "transferOwnership(address)",
      "arguments": [
        "0xD20baecCd9F77fAA9E2C2B185F33483D7911f9C8"
      ],
      "transaction": {
        "type": "0x02",
        "from": "0xf0c7f57f5f889d546f032e50fba953bd7c026350",
        "to": "0xba0835f1f2ae7f7a56e120e7476b3dab36dd4140",
        "gas": "0x9a49",
        "value": "0x0",
        "data": "0xf2fde38b000000000000000000000000d20baeccd9f77faa9e2c2b185f33483d7911f9c8",
        "nonce": "0x14a",
        "accessList": []
      },
      "additionalContracts": [],
      "isFixedGasLimit": false
    }
  ],
  "receipts": [
    {
      "transactionHash": "0x8f20025eb271befaeafe0efbe467981c86b1250ad13a12578c24aad15e728a26",
      "transactionIndex": "0x14",
      "blockHash": "0x6a7b03e7992c38f9cf645529d1b1528cd3d8fa259e1bfcb3f9ed70b0da8609fe",
      "blockNumber": "0x550c5e",
      "from": "0xf0c7f57f5F889D546F032E50fbA953BD7c026350",
      "to": "0xBa0835F1f2AE7F7a56E120E7476b3daB36dd4140",
      "cumulativeGasUsed": "0x10267c",
      "gasUsed": "0x6fb4",
      "contractAddress": null,
      "logs": [
        {
          "address": "0xBa0835F1f2AE7F7a56E120E7476b3daB36dd4140",
          "topics": [
            "0x8be0079c531659141344cd1fd0a4f28419497f9722a3daafe3b4186f6b6457e0",
            "0x000000000000000000000000f0c7f57f5f889d546f032e50fba953bd7c026350",
            "0x000000000000000000000000d20baeccd9f77faa9e2c2b185f33483d7911f9c8"
          ],
          "data": "0x",
          "blockHash": "0x6a7b03e7992c38f9cf645529d1b1528cd3d8fa259e1bfcb3f9ed70b0da8609fe",
          "blockNumber": "0x550c5e",
          "transactionHash": "0x8f20025eb271befaeafe0efbe467981c86b1250ad13a12578c24aad15e728a26",
          "transactionIndex": "0x14",
          "logIndex": "0x8",
          "removed": false
        }
      ],
      "status": "0x1",
      "logsBloom": "0x00000000000000000000000000000000000008000000000000800000000000000000000000000000000000000000000000000000000200000000000000000000000000000000000000000000000000000001000000000000000800000800000000000000000000002000100000000000000000000000000000000000000000400000000000000000000000000000000000000000000000000000000000000000000000100000000000000000000000000000000000000000000000000000000008000000000000000000000000000800000000000000000000000000000000000000000000000000000000000000000000000000000000000000000000000000",
      "type": "0x2",
      "effectiveGasPrice": "0xcd9ced18"
    }
  ],
  "libraries": [],
  "pending": [],
  "returns": {},
  "timestamp": 1711571355,
  "chain": 11155111,
  "commit": "34039e8"
}