{
  "transactions": [
    {
      "hash": "0x079c4e4e0076f4be79084315b2b542ef4bc4caaf9c83260c15424deb9f6ac4b6",
      "transactionType": "CALL",
      "contractName": null,
      "contractAddress": "0xd31acebcBc050F690E26eFB4E580142f90a489E8",
      "function": "transferOwnership(address)",
      "arguments": [
        "0xD20baecCd9F77fAA9E2C2B185F33483D7911f9C8"
      ],
      "transaction": {
        "type": "0x02",
        "from": "0xf0c7f57f5f889d546f032e50fba953bd7c026350",
        "to": "0xd31acebcbc050f690e26efb4e580142f90a489e8",
        "gas": "0x9a49",
        "value": "0x0",
        "data": "0xf2fde38b000000000000000000000000d20baeccd9f77faa9e2c2b185f33483d7911f9c8",
        "nonce": "0x16d",
        "accessList": []
      },
      "additionalContracts": [],
      "isFixedGasLimit": false
    }
  ],
  "receipts": [
    {
      "transactionHash": "0x079c4e4e0076f4be79084315b2b542ef4bc4caaf9c83260c15424deb9f6ac4b6",
      "transactionIndex": "0x6",
      "blockHash": "0x3f206f72c7d3b48cf628260148fb791b5b5dbf9e2ea05a709a5e59a680cf7c26",
      "blockNumber": "0x557914",
      "from": "0xf0c7f57f5F889D546F032E50fbA953BD7c026350",
      "to": "0xd31acebcBc050F690E26eFB4E580142f90a489E8",
      "cumulativeGasUsed": "0x9e324",
      "gasUsed": "0x6fb4",
      "contractAddress": null,
      "logs": [
        {
          "address": "0xd31acebcBc050F690E26eFB4E580142f90a489E8",
          "topics": [
            "0x8be0079c531659141344cd1fd0a4f28419497f9722a3daafe3b4186f6b6457e0",
            "0x000000000000000000000000f0c7f57f5f889d546f032e50fba953bd7c026350",
            "0x000000000000000000000000d20baeccd9f77faa9e2c2b185f33483d7911f9c8"
          ],
          "data": "0x",
          "blockHash": "0x3f206f72c7d3b48cf628260148fb791b5b5dbf9e2ea05a709a5e59a680cf7c26",
          "blockNumber": "0x557914",
          "transactionHash": "0x079c4e4e0076f4be79084315b2b542ef4bc4caaf9c83260c15424deb9f6ac4b6",
          "transactionIndex": "0x6",
          "logIndex": "0xf",
          "removed": false
        }
      ],
      "status": "0x1",
      "logsBloom": "0x00000000000000000000000000000000000008000000000000800000000000000000000000000000000000000000000000000000000200000000000000000000000000000000000000000000000000000001000000000000000800000000000000000000000000002000100000000000000000000000000000000000000004400000000000000000000000000000000000000000000000000000000000000000000000000000000000000000000000000000000000000000000000000000000000000000000000000000000000000800000000000000000000000004000000020000000000000000000000000000000000000000000000000000000000000000",
      "type": "0x2",
      "effectiveGasPrice": "0xb2d05e0e"
    }
  ],
  "libraries": [],
  "pending": [],
  "returns": {},
  "timestamp": 1711919450,
  "chain": 11155111,
  "commit": "e3037f7"
}