{
  "transactions": [
    {
      "hash": "0x4cbac20845ffecb374915647412ad93ea38c41f5c4e905a94a609744b8262084",
      "transactionType": "CALL",
      "contractName": null,
      "contractAddress": "0xFE1B064c8443aAEdAD23500C13323714E15C929c",
      "function": "borrowAsLimitOrder((uint256,(uint256[],uint256[],int256[])))",
      "arguments": [
        "(1000000000000000000, ([86400, 7200000], [1000000000000000000, 2000000000000000000], [0, 0]))"
      ],
      "transaction": {
        "type": "0x02",
        "from": "0x979af411d048b453e3334c95f392012b3bbd6215",
        "to": "0xfe1b064c8443aaedad23500c13323714e15c929c",
        "gas": "0x181ed",
        "value": "0x0",
        "data": "0x09931b0900000000000000000000000000000000000000000000000000000000000000200000000000000000000000000000000000000000000000000de0b6b3a76400000000000000000000000000000000000000000000000000000000000000000040000000000000000000000000000000000000000000000000000000000000006000000000000000000000000000000000000000000000000000000000000000c000000000000000000000000000000000000000000000000000000000000001200000000000000000000000000000000000000000000000000000000000000002000000000000000000000000000000000000000000000000000000000001518000000000000000000000000000000000000000000000000000000000006ddd0000000000000000000000000000000000000000000000000000000000000000020000000000000000000000000000000000000000000000000de0b6b3a76400000000000000000000000000000000000000000000000000001bc16d674ec80000000000000000000000000000000000000000000000000000000000000000000200000000000000000000000000000000000000000000000000000000000000000000000000000000000000000000000000000000000000000000000000000000",
        "nonce": "0x27",
        "accessList": []
      },
      "additionalContracts": [],
      "isFixedGasLimit": false
    }
  ],
  "receipts": [],
  "libraries": [],
  "pending": [
    "0x4cbac20845ffecb374915647412ad93ea38c41f5c4e905a94a609744b8262084"
  ],
  "returns": {},
  "timestamp": 1707399172,
  "chain": 11155111,
  "multi": false,
  "commit": "1bf49db"
}