{
  "transactions": [
    {
      "hash": "0x4cbac20845ffecb374915647412ad93ea38c41f5c4e905a94a609744b8262084",
      "transactionType": "CALL",
      "contractName": null,
      "contractAddress": "0xFE1B064c8443aAEdAD23500C13323714E15C929c",
      "function": "borrowAsLimitOrder((uint256,(uint256[],uint256[],int256[])))",
      "arguments": [
        "(1000000000000000000, ([86400, 7200000], [1000000000000000000, 2000000000000000000], [0, 0]))"
      ],
      "transaction": {
        "type": "0x02",
        "from": "0x979af411d048b453e3334c95f392012b3bbd6215",
        "to": "0xfe1b064c8443aaedad23500c13323714e15c929c",
        "gas": "0x181ed",
        "value": "0x0",
        "data": "0x09931b0900000000000000000000000000000000000000000000000000000000000000200000000000000000000000000000000000000000000000000de0b6b3a76400000000000000000000000000000000000000000000000000000000000000000040000000000000000000000000000000000000000000000000000000000000006000000000000000000000000000000000000000000000000000000000000000c000000000000000000000000000000000000000000000000000000000000001200000000000000000000000000000000000000000000000000000000000000002000000000000000000000000000000000000000000000000000000000001518000000000000000000000000000000000000000000000000000000000006ddd0000000000000000000000000000000000000000000000000000000000000000020000000000000000000000000000000000000000000000000de0b6b3a76400000000000000000000000000000000000000000000000000001bc16d674ec80000000000000000000000000000000000000000000000000000000000000000000200000000000000000000000000000000000000000000000000000000000000000000000000000000000000000000000000000000000000000000000000000000",
        "nonce": "0x27",
        "accessList": []
      },
      "additionalContracts": [],
      "isFixedGasLimit": false
    }
  ],
  "receipts": [
    {
      "transactionHash": "0x4cbac20845ffecb374915647412ad93ea38c41f5c4e905a94a609744b8262084",
      "transactionIndex": "0x5f",
      "blockHash": "0x2215a5e44fd0f7978f20444fe9c20e1b7834e99ef1ff97ba35abafc16ad716cc",
      "blockNumber": "0x500901",
      "from": "0x979Af411D048b453E3334C95F392012B3BbD6215",
      "to": "0xFE1B064c8443aAEdAD23500C13323714E15C929c",
      "cumulativeGasUsed": "0x6b80b0",
      "gasUsed": "0x11768",
      "contractAddress": null,
      "logs": [
        {
          "address": "0xFE1B064c8443aAEdAD23500C13323714E15C929c",
          "topics": [
            "0xe6ec541f182a34960ff4f7605f24e26b07c70b3f6fa7bc7704818e29eff8e667"
          ],
          "data": "0x0000000000000000000000000000000000000000000000000000000000000020000000000000000000000000000000000000000000000000000000000000006000000000000000000000000000000000000000000000000000000000000000c000000000000000000000000000000000000000000000000000000000000001200000000000000000000000000000000000000000000000000000000000000002000000000000000000000000000000000000000000000000000000000001518000000000000000000000000000000000000000000000000000000000006ddd0000000000000000000000000000000000000000000000000000000000000000020000000000000000000000000000000000000000000000000de0b6b3a76400000000000000000000000000000000000000000000000000001bc16d674ec80000000000000000000000000000000000000000000000000000000000000000000200000000000000000000000000000000000000000000000000000000000000000000000000000000000000000000000000000000000000000000000000000000",
          "blockHash": "0x2215a5e44fd0f7978f20444fe9c20e1b7834e99ef1ff97ba35abafc16ad716cc",
          "blockNumber": "0x500901",
          "transactionHash": "0x4cbac20845ffecb374915647412ad93ea38c41f5c4e905a94a609744b8262084",
          "transactionIndex": "0x5f",
          "logIndex": "0x6b",
          "removed": false
        }
      ],
      "status": "0x1",
      "logsBloom": "0x00000000000000200000000000000000000000000000000000000000000000000000000000000000000000000000000000000000000000000000000000000100000000000000000000000000800000000000000000000000000000000000000000000000000000000000000000000000000000000000000000000000000000000000000000000000000000000000000000000000000000000000000000000000000000000000000000000000000000000000000000000000080000000000000000000000000000000200000000000000000008000000000000000000000000000000000000000000000000000000000000000000000000000000000000000000",
      "type": "0x2",
      "effectiveGasPrice": "0x5c3127330"
    }
  ],
  "libraries": [],
  "pending": [],
  "returns": {},
  "timestamp": 1707399185,
  "chain": 11155111,
  "multi": false,
  "commit": "1bf49db"
}