{
  "transactions": [
    {
      "hash": "0x0b7bcec1bf868e910bed871c6a813d4527f2d52f388b8c2b7c99211efb11102b",
      "transactionType": "CALL",
      "contractName": null,
      "contractAddress": "0xFE1B064c8443aAEdAD23500C13323714E15C929c",
      "function": "deposit((address,uint256,address))",
      "arguments": [
        "(0x94a9D9AC8a22534E3FaCa9F4e7F2E2cf85d5E4C8, 100000000, 0x979Af411D048b453E3334C95F392012B3BbD6215)"
      ],
      "transaction": {
        "type": "0x02",
        "from": "0xd20baeccd9f77faa9e2c2b185f33483d7911f9c8",
        "to": "0xfe1b064c8443aaedad23500c13323714e15c929c",
        "gas": "0x338b9",
        "value": "0x0",
        "data": "0x0cf8542f00000000000000000000000094a9d9ac8a22534e3faca9f4e7f2e2cf85d5e4c80000000000000000000000000000000000000000000000000000000005f5e100000000000000000000000000979af411d048b453e3334c95f392012b3bbd6215",
        "nonce": "0x6b",
        "accessList": []
      },
      "additionalContracts": [],
      "isFixedGasLimit": false
    }
  ],
  "receipts": [],
  "libraries": [],
  "pending": [
    "0x0b7bcec1bf868e910bed871c6a813d4527f2d52f388b8c2b7c99211efb11102b"
  ],
  "returns": {},
  "timestamp": 1707398600,
  "chain": 11155111,
  "multi": false,
  "commit": "1bf49db"
}