{
  "transactions": [
    {
      "hash": "0x0b7bcec1bf868e910bed871c6a813d4527f2d52f388b8c2b7c99211efb11102b",
      "transactionType": "CALL",
      "contractName": null,
      "contractAddress": "0xFE1B064c8443aAEdAD23500C13323714E15C929c",
      "function": "deposit((address,uint256,address))",
      "arguments": [
        "(0x94a9D9AC8a22534E3FaCa9F4e7F2E2cf85d5E4C8, 100000000, 0x979Af411D048b453E3334C95F392012B3BbD6215)"
      ],
      "transaction": {
        "type": "0x02",
        "from": "0xd20baeccd9f77faa9e2c2b185f33483d7911f9c8",
        "to": "0xfe1b064c8443aaedad23500c13323714e15c929c",
        "gas": "0x338b9",
        "value": "0x0",
        "data": "0x0cf8542f00000000000000000000000094a9d9ac8a22534e3faca9f4e7f2e2cf85d5e4c80000000000000000000000000000000000000000000000000000000005f5e100000000000000000000000000979af411d048b453e3334c95f392012b3bbd6215",
        "nonce": "0x6b",
        "accessList": []
      },
      "additionalContracts": [],
      "isFixedGasLimit": false
    }
  ],
  "receipts": [
    {
      "transactionHash": "0x0b7bcec1bf868e910bed871c6a813d4527f2d52f388b8c2b7c99211efb11102b",
      "transactionIndex": "0x2e",
      "blockHash": "0x74a2221f36c49e95a1b0225afff2083b3eaf040d7aa100b9b0c3eeb649e32131",
      "blockNumber": "0x5008d4",
      "from": "0xD20baecCd9F77fAA9E2C2B185F33483D7911f9C8",
      "to": "0xFE1B064c8443aAEdAD23500C13323714E15C929c",
      "cumulativeGasUsed": "0x2c3a91",
      "gasUsed": "0x233ea",
      "contractAddress": null,
      "logs": [
        {
          "address": "0x94a9D9AC8a22534E3FaCa9F4e7F2E2cf85d5E4C8",
          "topics": [
            "0xddf252ad1be2c89b69c2b068fc378daa952ba7f163c4a11628f55a4df523b3ef",
            "0x000000000000000000000000d20baeccd9f77faa9e2c2b185f33483d7911f9c8",
            "0x000000000000000000000000fe1b064c8443aaedad23500c13323714e15c929c"
          ],
          "data": "0x0000000000000000000000000000000000000000000000000000000005f5e100",
          "blockHash": "0x74a2221f36c49e95a1b0225afff2083b3eaf040d7aa100b9b0c3eeb649e32131",
          "blockNumber": "0x5008d4",
          "transactionHash": "0x0b7bcec1bf868e910bed871c6a813d4527f2d52f388b8c2b7c99211efb11102b",
          "transactionIndex": "0x2e",
          "logIndex": "0x26",
          "removed": false
        },
        {
          "address": "0x94a9D9AC8a22534E3FaCa9F4e7F2E2cf85d5E4C8",
          "topics": [
            "0x8c5be1e5ebec7d5bd14f71427d1e84f3dd0314c0f7b2291e5b200ac8c7c3b925",
            "0x000000000000000000000000d20baeccd9f77faa9e2c2b185f33483d7911f9c8",
            "0x000000000000000000000000fe1b064c8443aaedad23500c13323714e15c929c"
          ],
          "data": "0x00000000000000000000000000000000000000000000021e19e0c9baabb18880",
          "blockHash": "0x74a2221f36c49e95a1b0225afff2083b3eaf040d7aa100b9b0c3eeb649e32131",
          "blockNumber": "0x5008d4",
          "transactionHash": "0x0b7bcec1bf868e910bed871c6a813d4527f2d52f388b8c2b7c99211efb11102b",
          "transactionIndex": "0x2e",
          "logIndex": "0x27",
          "removed": false
        },
        {
          "address": "0x94a9D9AC8a22534E3FaCa9F4e7F2E2cf85d5E4C8",
          "topics": [
            "0x8c5be1e5ebec7d5bd14f71427d1e84f3dd0314c0f7b2291e5b200ac8c7c3b925",
            "0x000000000000000000000000fe1b064c8443aaedad23500c13323714e15c929c",
            "0x000000000000000000000000878a109d5fc37f99231041f13ee65fb960b60f04"
          ],
          "data": "0x0000000000000000000000000000000000000000000000000000000005f5e100",
          "blockHash": "0x74a2221f36c49e95a1b0225afff2083b3eaf040d7aa100b9b0c3eeb649e32131",
          "blockNumber": "0x5008d4",
          "transactionHash": "0x0b7bcec1bf868e910bed871c6a813d4527f2d52f388b8c2b7c99211efb11102b",
          "transactionIndex": "0x2e",
          "logIndex": "0x28",
          "removed": false
        },
        {
          "address": "0x94a9D9AC8a22534E3FaCa9F4e7F2E2cf85d5E4C8",
          "topics": [
            "0xddf252ad1be2c89b69c2b068fc378daa952ba7f163c4a11628f55a4df523b3ef",
            "0x000000000000000000000000fe1b064c8443aaedad23500c13323714e15c929c",
            "0x000000000000000000000000878a109d5fc37f99231041f13ee65fb960b60f04"
          ],
          "data": "0x0000000000000000000000000000000000000000000000000000000005f5e100",
          "blockHash": "0x74a2221f36c49e95a1b0225afff2083b3eaf040d7aa100b9b0c3eeb649e32131",
          "blockNumber": "0x5008d4",
          "transactionHash": "0x0b7bcec1bf868e910bed871c6a813d4527f2d52f388b8c2b7c99211efb11102b",
          "transactionIndex": "0x2e",
          "logIndex": "0x29",
          "removed": false
        },
        {
          "address": "0x94a9D9AC8a22534E3FaCa9F4e7F2E2cf85d5E4C8",
          "topics": [
            "0x8c5be1e5ebec7d5bd14f71427d1e84f3dd0314c0f7b2291e5b200ac8c7c3b925",
            "0x000000000000000000000000fe1b064c8443aaedad23500c13323714e15c929c",
            "0x000000000000000000000000878a109d5fc37f99231041f13ee65fb960b60f04"
          ],
          "data": "0x0000000000000000000000000000000000000000000000000000000000000000",
          "blockHash": "0x74a2221f36c49e95a1b0225afff2083b3eaf040d7aa100b9b0c3eeb649e32131",
          "blockNumber": "0x5008d4",
          "transactionHash": "0x0b7bcec1bf868e910bed871c6a813d4527f2d52f388b8c2b7c99211efb11102b",
          "transactionIndex": "0x2e",
          "logIndex": "0x2a",
          "removed": false
        },
        {
          "address": "0x1e26004a8AB552F980Dc8Abe99706b9a4e52a08A",
          "topics": [
            "0xddf252ad1be2c89b69c2b068fc378daa952ba7f163c4a11628f55a4df523b3ef",
            "0x0000000000000000000000000000000000000000000000000000000000000000",
            "0x000000000000000000000000a7efde65a861bb0d4c622f79099b1cc4eaa2710a"
          ],
          "data": "0x0000000000000000000000000000000000000000000000000000000005f5e100",
          "blockHash": "0x74a2221f36c49e95a1b0225afff2083b3eaf040d7aa100b9b0c3eeb649e32131",
          "blockNumber": "0x5008d4",
          "transactionHash": "0x0b7bcec1bf868e910bed871c6a813d4527f2d52f388b8c2b7c99211efb11102b",
          "transactionIndex": "0x2e",
          "logIndex": "0x2b",
          "removed": false
        },
        {
          "address": "0x1e26004a8AB552F980Dc8Abe99706b9a4e52a08A",
          "topics": [
            "0x458f5fa412d0f69b08dd84872b0215675cc67bc1d5b6fd93300a1c3878b86196",
            "0x000000000000000000000000878a109d5fc37f99231041f13ee65fb960b60f04",
            "0x000000000000000000000000a7efde65a861bb0d4c622f79099b1cc4eaa2710a"
          ],
          "data": "0x0000000000000000000000000000000000000000000000000000000005f5e10000000000000000000000000000000000000000000000000000000000000000000000000000000000000000000000000000000000033b2e3c9fd0803ce8000000",
          "blockHash": "0x74a2221f36c49e95a1b0225afff2083b3eaf040d7aa100b9b0c3eeb649e32131",
          "blockNumber": "0x5008d4",
          "transactionHash": "0x0b7bcec1bf868e910bed871c6a813d4527f2d52f388b8c2b7c99211efb11102b",
          "transactionIndex": "0x2e",
          "logIndex": "0x2c",
          "removed": false
        },
        {
          "address": "0xFE1B064c8443aAEdAD23500C13323714E15C929c",
          "topics": [
            "0x5548c837ab068cf56a2c2479df0882a4922fd203edb7517321831d95078c5f62",
            "0x00000000000000000000000094a9d9ac8a22534e3faca9f4e7f2e2cf85d5e4c8",
            "0x000000000000000000000000979af411d048b453e3334c95f392012b3bbd6215"
          ],
          "data": "0x0000000000000000000000000000000000000000000000000000000005f5e100",
          "blockHash": "0x74a2221f36c49e95a1b0225afff2083b3eaf040d7aa100b9b0c3eeb649e32131",
          "blockNumber": "0x5008d4",
          "transactionHash": "0x0b7bcec1bf868e910bed871c6a813d4527f2d52f388b8c2b7c99211efb11102b",
          "transactionIndex": "0x2e",
          "logIndex": "0x2d",
          "removed": false
        }
      ],
      "status": "0x1",
      "logsBloom": "0x0000000000000000020000000000000000000000000000000000000000000000000000000000000000010000000400000000000000000200010000004020000400000000000800000000000800000000000000000000000000080804000000000000000002000000200010000000080000000000000000000000001000000000000000000000000001000000000000000000000000000040000000000000000002000000010022200000c000000000000080000000000000080000010000000022001402000000000200000000000002000008000000020000000000000020000010000000000000000000000000000000000000000000000000000000000000",
      "type": "0x2",
      "effectiveGasPrice": "0x85af7448d"
    }
  ],
  "libraries": [],
  "pending": [],
  "returns": {},
  "timestamp": 1707398607,
  "chain": 11155111,
  "multi": false,
  "commit": "1bf49db"
}