{
  "transactions": [
    {
      "hash": "0xcdd1f0ac85b3238a1dd733f8e77b89abec80a0166c2e39e0ddd12224d72301be",
      "transactionType": "CALL",
      "contractName": null,
      "contractAddress": "0xFE1B064c8443aAEdAD23500C13323714E15C929c",
      "function": "deposit((address,uint256,address))",
      "arguments": [
        "(0x94a9D9AC8a22534E3FaCa9F4e7F2E2cf85d5E4C8, 100000000, 0xD20baecCd9F77fAA9E2C2B185F33483D7911f9C8)"
      ],
      "transaction": {
        "type": "0x02",
        "from": "0x979af411d048b453e3334c95f392012b3bbd6215",
        "to": "0xfe1b064c8443aaedad23500c13323714e15c929c",
        "gas": "0x338b9",
        "value": "0x0",
        "data": "0x0cf8542f00000000000000000000000094a9d9ac8a22534e3faca9f4e7f2e2cf85d5e4c80000000000000000000000000000000000000000000000000000000005f5e100000000000000000000000000d20baeccd9f77faa9e2c2b185f33483d7911f9c8",
        "nonce": "0x23",
        "accessList": []
      },
      "additionalContracts": [],
      "isFixedGasLimit": false
    }
  ],
  "receipts": [
    {
      "transactionHash": "0xcdd1f0ac85b3238a1dd733f8e77b89abec80a0166c2e39e0ddd12224d72301be",
      "transactionIndex": "0x2e",
      "blockHash": "0x39ed2847204f1c887215862e7ad1783145c7e1b518a029db809834ecf9f84b27",
      "blockNumber": "0x5008dd",
      "from": "0x979Af411D048b453E3334C95F392012B3BbD6215",
      "to": "0xFE1B064c8443aAEdAD23500C13323714E15C929c",
      "cumulativeGasUsed": "0x410850",
      "gasUsed": "0x233ea",
      "contractAddress": null,
      "logs": [
        {
          "address": "0x94a9D9AC8a22534E3FaCa9F4e7F2E2cf85d5E4C8",
          "topics": [
            "0xddf252ad1be2c89b69c2b068fc378daa952ba7f163c4a11628f55a4df523b3ef",
            "0x000000000000000000000000979af411d048b453e3334c95f392012b3bbd6215",
            "0x000000000000000000000000fe1b064c8443aaedad23500c13323714e15c929c"
          ],
          "data": "0x0000000000000000000000000000000000000000000000000000000005f5e100",
          "blockHash": "0x39ed2847204f1c887215862e7ad1783145c7e1b518a029db809834ecf9f84b27",
          "blockNumber": "0x5008dd",
          "transactionHash": "0xcdd1f0ac85b3238a1dd733f8e77b89abec80a0166c2e39e0ddd12224d72301be",
          "transactionIndex": "0x2e",
          "logIndex": "0x3d",
          "removed": false
        },
        {
          "address": "0x94a9D9AC8a22534E3FaCa9F4e7F2E2cf85d5E4C8",
          "topics": [
            "0x8c5be1e5ebec7d5bd14f71427d1e84f3dd0314c0f7b2291e5b200ac8c7c3b925",
            "0x000000000000000000000000979af411d048b453e3334c95f392012b3bbd6215",
            "0x000000000000000000000000fe1b064c8443aaedad23500c13323714e15c929c"
          ],
          "data": "0x00000000000000000000000000000000000000000000003635c9adc5d8118880",
          "blockHash": "0x39ed2847204f1c887215862e7ad1783145c7e1b518a029db809834ecf9f84b27",
          "blockNumber": "0x5008dd",
          "transactionHash": "0xcdd1f0ac85b3238a1dd733f8e77b89abec80a0166c2e39e0ddd12224d72301be",
          "transactionIndex": "0x2e",
          "logIndex": "0x3e",
          "removed": false
        },
        {
          "address": "0x94a9D9AC8a22534E3FaCa9F4e7F2E2cf85d5E4C8",
          "topics": [
            "0x8c5be1e5ebec7d5bd14f71427d1e84f3dd0314c0f7b2291e5b200ac8c7c3b925",
            "0x000000000000000000000000fe1b064c8443aaedad23500c13323714e15c929c",
            "0x000000000000000000000000878a109d5fc37f99231041f13ee65fb960b60f04"
          ],
          "data": "0x0000000000000000000000000000000000000000000000000000000005f5e100",
          "blockHash": "0x39ed2847204f1c887215862e7ad1783145c7e1b518a029db809834ecf9f84b27",
          "blockNumber": "0x5008dd",
          "transactionHash": "0xcdd1f0ac85b3238a1dd733f8e77b89abec80a0166c2e39e0ddd12224d72301be",
          "transactionIndex": "0x2e",
          "logIndex": "0x3f",
          "removed": false
        },
        {
          "address": "0x94a9D9AC8a22534E3FaCa9F4e7F2E2cf85d5E4C8",
          "topics": [
            "0xddf252ad1be2c89b69c2b068fc378daa952ba7f163c4a11628f55a4df523b3ef",
            "0x000000000000000000000000fe1b064c8443aaedad23500c13323714e15c929c",
            "0x000000000000000000000000878a109d5fc37f99231041f13ee65fb960b60f04"
          ],
          "data": "0x0000000000000000000000000000000000000000000000000000000005f5e100",
          "blockHash": "0x39ed2847204f1c887215862e7ad1783145c7e1b518a029db809834ecf9f84b27",
          "blockNumber": "0x5008dd",
          "transactionHash": "0xcdd1f0ac85b3238a1dd733f8e77b89abec80a0166c2e39e0ddd12224d72301be",
          "transactionIndex": "0x2e",
          "logIndex": "0x40",
          "removed": false
        },
        {
          "address": "0x94a9D9AC8a22534E3FaCa9F4e7F2E2cf85d5E4C8",
          "topics": [
            "0x8c5be1e5ebec7d5bd14f71427d1e84f3dd0314c0f7b2291e5b200ac8c7c3b925",
            "0x000000000000000000000000fe1b064c8443aaedad23500c13323714e15c929c",
            "0x000000000000000000000000878a109d5fc37f99231041f13ee65fb960b60f04"
          ],
          "data": "0x0000000000000000000000000000000000000000000000000000000000000000",
          "blockHash": "0x39ed2847204f1c887215862e7ad1783145c7e1b518a029db809834ecf9f84b27",
          "blockNumber": "0x5008dd",
          "transactionHash": "0xcdd1f0ac85b3238a1dd733f8e77b89abec80a0166c2e39e0ddd12224d72301be",
          "transactionIndex": "0x2e",
          "logIndex": "0x41",
          "removed": false
        },
        {
          "address": "0x1e26004a8AB552F980Dc8Abe99706b9a4e52a08A",
          "topics": [
            "0xddf252ad1be2c89b69c2b068fc378daa952ba7f163c4a11628f55a4df523b3ef",
            "0x0000000000000000000000000000000000000000000000000000000000000000",
            "0x0000000000000000000000009c019ef23b6199ee6292ed9a1d298c0e4a5d8905"
          ],
          "data": "0x0000000000000000000000000000000000000000000000000000000005f5e100",
          "blockHash": "0x39ed2847204f1c887215862e7ad1783145c7e1b518a029db809834ecf9f84b27",
          "blockNumber": "0x5008dd",
          "transactionHash": "0xcdd1f0ac85b3238a1dd733f8e77b89abec80a0166c2e39e0ddd12224d72301be",
          "transactionIndex": "0x2e",
          "logIndex": "0x42",
          "removed": false
        },
        {
          "address": "0x1e26004a8AB552F980Dc8Abe99706b9a4e52a08A",
          "topics": [
            "0x458f5fa412d0f69b08dd84872b0215675cc67bc1d5b6fd93300a1c3878b86196",
            "0x000000000000000000000000878a109d5fc37f99231041f13ee65fb960b60f04",
            "0x0000000000000000000000009c019ef23b6199ee6292ed9a1d298c0e4a5d8905"
          ],
          "data": "0x0000000000000000000000000000000000000000000000000000000005f5e10000000000000000000000000000000000000000000000000000000000000000000000000000000000000000000000000000000000033b2e3c9fd0803ce8000000",
          "blockHash": "0x39ed2847204f1c887215862e7ad1783145c7e1b518a029db809834ecf9f84b27",
          "blockNumber": "0x5008dd",
          "transactionHash": "0xcdd1f0ac85b3238a1dd733f8e77b89abec80a0166c2e39e0ddd12224d72301be",
          "transactionIndex": "0x2e",
          "logIndex": "0x43",
          "removed": false
        },
        {
          "address": "0xFE1B064c8443aAEdAD23500C13323714E15C929c",
          "topics": [
            "0x5548c837ab068cf56a2c2479df0882a4922fd203edb7517321831d95078c5f62",
            "0x00000000000000000000000094a9d9ac8a22534e3faca9f4e7f2e2cf85d5e4c8",
            "0x000000000000000000000000d20baeccd9f77faa9e2c2b185f33483d7911f9c8"
          ],
          "data": "0x0000000000000000000000000000000000000000000000000000000005f5e100",
          "blockHash": "0x39ed2847204f1c887215862e7ad1783145c7e1b518a029db809834ecf9f84b27",
          "blockNumber": "0x5008dd",
          "transactionHash": "0xcdd1f0ac85b3238a1dd733f8e77b89abec80a0166c2e39e0ddd12224d72301be",
          "transactionIndex": "0x2e",
          "logIndex": "0x44",
          "removed": false
        }
      ],
      "status": "0x1",
      "logsBloom": "0x0000000000000000020000000000000000000000000000000000000000000000000000000000000000010000000400000000000000000200010000004020000400000000000800000000000800000000100000000000000000080804000000000000000002000000200010000000080000000000000000000000001000000000000000000000000000000000000000000000000000000040000000000000000002000000010020200000c000000000000000000000000000080000010000000022001402000000000200000000000002000008000000020000000000000020000010000000000000000000000000000000000000000000001000000000000000",
      "type": "0x2",
      "effectiveGasPrice": "0x75cc4c704"
    }
  ],
  "libraries": [],
  "pending": [],
  "returns": {},
  "timestamp": 1707398730,
  "chain": 11155111,
  "multi": false,
  "commit": "1bf49db"
}