{
  "transactions": [
    {
      "hash": "0x0dee0e21cbc7b671543fe5b8bc7534ee620720a26424de36f1b6768f80e24760",
      "transactionType": "CALL",
      "contractName": null,
      "contractAddress": "0xFE1B064c8443aAEdAD23500C13323714E15C929c",
      "function": "lendAsLimitOrder((uint256,(uint256[],uint256[],int256[])))",
      "arguments": [
        "(1709991048, ([86400, 720000], [1000000000000000000, 2000000000000000000], [1000000000000000000, 1000000000000000000]))"
      ],
      "transaction": {
        "type": "0x02",
        "from": "0x979af411d048b453e3334c95f392012b3bbd6215",
        "to": "0xfe1b064c8443aaedad23500c13323714e15c929c",
        "gas": "0x1ab6b",
        "value": "0x0",
        "data": "0x83ea6c3f00000000000000000000000000000000000000000000000000000000000000200000000000000000000000000000000000000000000000000000000065ec64880000000000000000000000000000000000000000000000000000000000000040000000000000000000000000000000000000000000000000000000000000006000000000000000000000000000000000000000000000000000000000000000c000000000000000000000000000000000000000000000000000000000000001200000000000000000000000000000000000000000000000000000000000000002000000000000000000000000000000000000000000000000000000000001518000000000000000000000000000000000000000000000000000000000000afc8000000000000000000000000000000000000000000000000000000000000000020000000000000000000000000000000000000000000000000de0b6b3a76400000000000000000000000000000000000000000000000000001bc16d674ec8000000000000000000000000000000000000000000000000000000000000000000020000000000000000000000000000000000000000000000000de0b6b3a76400000000000000000000000000000000000000000000000000000de0b6b3a7640000",
        "nonce": "0x26",
        "accessList": []
      },
      "additionalContracts": [],
      "isFixedGasLimit": false
    }
  ],
  "receipts": [
    {
      "transactionHash": "0x0dee0e21cbc7b671543fe5b8bc7534ee620720a26424de36f1b6768f80e24760",
      "transactionIndex": "0x38",
      "blockHash": "0xf2d0df1a5c7cd1cd553b785eb74be7bb6b80b2f8174dd575d8c106824f7e30a9",
      "blockNumber": "0x5008f9",
      "from": "0x979Af411D048b453E3334C95F392012B3BbD6215",
      "to": "0xFE1B064c8443aAEdAD23500C13323714E15C929c",
      "cumulativeGasUsed": "0x35ff93",
      "gasUsed": "0x12441",
      "contractAddress": null,
      "logs": [
        {
          "address": "0xFE1B064c8443aAEdAD23500C13323714E15C929c",
          "topics": [
            "0x3b6874996459151f1c04500f7b7e26319353d737f30bea4c388be1a6fce94b0e"
          ],
          "data": "0x0000000000000000000000000000000000000000000000000000000065ec64880000000000000000000000000000000000000000000000000000000000000040000000000000000000000000000000000000000000000000000000000000006000000000000000000000000000000000000000000000000000000000000000c000000000000000000000000000000000000000000000000000000000000001200000000000000000000000000000000000000000000000000000000000000002000000000000000000000000000000000000000000000000000000000001518000000000000000000000000000000000000000000000000000000000000afc8000000000000000000000000000000000000000000000000000000000000000020000000000000000000000000000000000000000000000000de0b6b3a76400000000000000000000000000000000000000000000000000001bc16d674ec8000000000000000000000000000000000000000000000000000000000000000000020000000000000000000000000000000000000000000000000de0b6b3a76400000000000000000000000000000000000000000000000000000de0b6b3a7640000",
          "blockHash": "0xf2d0df1a5c7cd1cd553b785eb74be7bb6b80b2f8174dd575d8c106824f7e30a9",
          "blockNumber": "0x5008f9",
          "transactionHash": "0x0dee0e21cbc7b671543fe5b8bc7534ee620720a26424de36f1b6768f80e24760",
          "transactionIndex": "0x38",
          "logIndex": "0x33",
          "removed": false
        }
      ],
      "status": "0x1",
      "logsBloom": "0x00000000000000000000000000000000000000000000000000000000000000000000000020000000000000000000000000000000000080000000000000000000000000000000000000000000000000000000000000000000000000000000000000000000000000000000000000000000000000000000000000000000000000000000000000000000000000000000000000000000000000000000000000000000000000000000000000000000000000000000000000000000080000000000000000000000000000000200000000000000000008000000000000000000000000800000000000000000000000000000000000000000000000000000000000000000",
      "type": "0x2",
      "effectiveGasPrice": "0x6a71b5754"
    }
  ],
  "libraries": [],
  "pending": [],
  "returns": {},
  "timestamp": 1707399074,
  "chain": 11155111,
  "multi": false,
  "commit": "1bf49db"
}