{
  "transactions": [
    {
      "hash": "0x0f19f1837c13377b40001a8315561ef95398563117035948a0a3369c27e76edd",
      "transactionType": "CALL",
      "contractName": null,
      "contractAddress": "0xFE1B064c8443aAEdAD23500C13323714E15C929c",
      "function": "borrowAsMarketOrder((address,uint256,uint256,bool,uint256[]))",
      "arguments": [
        "(0x979Af411D048b453E3334C95F392012B3BbD6215, 5000000, 1707744408, false, [])"
      ],
      "transaction": {
        "type": "0x02",
        "from": "0x979af411d048b453e3334c95f392012b3bbd6215",
        "to": "0xfe1b064c8443aaedad23500c13323714e15c929c",
        "gas": "0x886ab",
        "value": "0x0",
        "data": "0x872b7d260000000000000000000000000000000000000000000000000000000000000020000000000000000000000000979af411d048b453e3334c95f392012b3bbd621500000000000000000000000000000000000000000000000000000000004c4b400000000000000000000000000000000000000000000000000000000065ca1c98000000000000000000000000000000000000000000000000000000000000000000000000000000000000000000000000000000000000000000000000000000a00000000000000000000000000000000000000000000000000000000000000000",
        "nonce": "0x24",
        "accessList": []
      },
      "additionalContracts": [],
      "isFixedGasLimit": false
    }
  ],
  "receipts": [],
  "libraries": [],
  "pending": [
    "0x0f19f1837c13377b40001a8315561ef95398563117035948a0a3369c27e76edd"
  ],
  "returns": {},
  "timestamp": 1707398866,
  "chain": 11155111,
  "multi": false,
  "commit": "1bf49db"
}