{
  "transactions": [
    {
      "hash": "0x0f19f1837c13377b40001a8315561ef95398563117035948a0a3369c27e76edd",
      "transactionType": "CALL",
      "contractName": null,
      "contractAddress": "0xFE1B064c8443aAEdAD23500C13323714E15C929c",
      "function": "borrowAsMarketOrder((address,uint256,uint256,bool,uint256[]))",
      "arguments": [
        "(0x979Af411D048b453E3334C95F392012B3BbD6215, 5000000, 1707744408, false, [])"
      ],
      "transaction": {
        "type": "0x02",
        "from": "0x979af411d048b453e3334c95f392012b3bbd6215",
        "to": "0xfe1b064c8443aaedad23500c13323714e15c929c",
        "gas": "0x886ab",
        "value": "0x0",
        "data": "0x872b7d260000000000000000000000000000000000000000000000000000000000000020000000000000000000000000979af411d048b453e3334c95f392012b3bbd621500000000000000000000000000000000000000000000000000000000004c4b400000000000000000000000000000000000000000000000000000000065ca1c98000000000000000000000000000000000000000000000000000000000000000000000000000000000000000000000000000000000000000000000000000000a00000000000000000000000000000000000000000000000000000000000000000",
        "nonce": "0x24",
        "accessList": []
      },
      "additionalContracts": [],
      "isFixedGasLimit": false
    }
  ],
  "receipts": [
    {
      "transactionHash": "0x0f19f1837c13377b40001a8315561ef95398563117035948a0a3369c27e76edd",
      "transactionIndex": "0x33",
      "blockHash": "0xfc75c5424f58d28086cd9253ca153814887e21f3a6bed78f02cb9b6ef0c9baaf",
      "blockNumber": "0x5008e9",
      "from": "0x979Af411D048b453E3334C95F392012B3BbD6215",
      "to": "0xFE1B064c8443aAEdAD23500C13323714E15C929c",
      "cumulativeGasUsed": "0x359f68",
      "gasUsed": "0x62c37",
      "contractAddress": null,
      "logs": [
        {
          "address": "0xFE1B064c8443aAEdAD23500C13323714E15C929c",
          "topics": [
            "0x31c4288e9223fa08a43b454ba0d23c2e030c6c3f912bde9f90c0c781d50bae01",
            "0x000000000000000000000000979af411d048b453e3334c95f392012b3bbd6215"
          ],
          "data": "0x00000000000000000000000000000000000000000000000000000000004c4b400000000000000000000000000000000000000000000000000000000065ca1c98000000000000000000000000000000000000000000000000000000000000000000000000000000000000000000000000000000000000000000000000000000800000000000000000000000000000000000000000000000000000000000000000",
          "blockHash": "0xfc75c5424f58d28086cd9253ca153814887e21f3a6bed78f02cb9b6ef0c9baaf",
          "blockNumber": "0x5008e9",
          "transactionHash": "0x0f19f1837c13377b40001a8315561ef95398563117035948a0a3369c27e76edd",
          "transactionIndex": "0x33",
          "logIndex": "0x32",
          "removed": false
        },
        {
          "address": "0xFE1B064c8443aAEdAD23500C13323714E15C929c",
          "topics": [
            "0xd89dd5f05f70875c5ac6a2f5c06d8e59903cba951757065a2b69bf7e301f83b3",
            "0x0000000000000000000000000000000000000000000000000000000000000002",
            "0x000000000000000000000000979af411d048b453e3334c95f392012b3bbd6215",
            "0x000000000000000000000000979af411d048b453e3334c95f392012b3bbd6215"
          ],
          "data": "0x00000000000000000000000000000000000000000000000000000000004c4b40000000000000000000000000000000000000000000000000148ee8c7e73efd170000000000000000000000000000000000000000000000000000000065ca1c98",
          "blockHash": "0xfc75c5424f58d28086cd9253ca153814887e21f3a6bed78f02cb9b6ef0c9baaf",
          "blockNumber": "0x5008e9",
          "transactionHash": "0x0f19f1837c13377b40001a8315561ef95398563117035948a0a3369c27e76edd",
          "transactionIndex": "0x33",
          "logIndex": "0x33",
          "removed": false
        },
        {
          "address": "0xfe1C50468Aa725985597DC5F4BAEa3b7C0ef485E",
          "topics": [
            "0xddf252ad1be2c89b69c2b068fc378daa952ba7f163c4a11628f55a4df523b3ef",
            "0x0000000000000000000000000000000000000000000000000000000000000000",
            "0x000000000000000000000000979af411d048b453e3334c95f392012b3bbd6215"
          ],
          "data": "0x0000000000000000000000000000000000000000000000000000000000bd5179",
          "blockHash": "0xfc75c5424f58d28086cd9253ca153814887e21f3a6bed78f02cb9b6ef0c9baaf",
          "blockNumber": "0x5008e9",
          "transactionHash": "0x0f19f1837c13377b40001a8315561ef95398563117035948a0a3369c27e76edd",
          "transactionIndex": "0x33",
          "logIndex": "0x34",
          "removed": false
        },
        {
          "address": "0x1e26004a8AB552F980Dc8Abe99706b9a4e52a08A",
          "topics": [
            "0xddf252ad1be2c89b69c2b068fc378daa952ba7f163c4a11628f55a4df523b3ef",
            "0x000000000000000000000000a7efde65a861bb0d4c622f79099b1cc4eaa2710a",
            "0x000000000000000000000000a7efde65a861bb0d4c622f79099b1cc4eaa2710a"
          ],
          "data": "0x00000000000000000000000000000000000000000000000000000000004c4b40",
          "blockHash": "0xfc75c5424f58d28086cd9253ca153814887e21f3a6bed78f02cb9b6ef0c9baaf",
          "blockNumber": "0x5008e9",
          "transactionHash": "0x0f19f1837c13377b40001a8315561ef95398563117035948a0a3369c27e76edd",
          "transactionIndex": "0x33",
          "logIndex": "0x35",
          "removed": false
        },
        {
          "address": "0x1e26004a8AB552F980Dc8Abe99706b9a4e52a08A",
          "topics": [
            "0x4beccb90f994c31aced7a23b5611020728a23d8ec5cddd1a3e9d97b96fda8666",
            "0x000000000000000000000000a7efde65a861bb0d4c622f79099b1cc4eaa2710a",
            "0x000000000000000000000000a7efde65a861bb0d4c622f79099b1cc4eaa2710a"
          ],
          "data": "0x00000000000000000000000000000000000000000000000000000000004c4b400000000000000000000000000000000000000000033b2e3c9fd0803ce8000000",
          "blockHash": "0xfc75c5424f58d28086cd9253ca153814887e21f3a6bed78f02cb9b6ef0c9baaf",
          "blockNumber": "0x5008e9",
          "transactionHash": "0x0f19f1837c13377b40001a8315561ef95398563117035948a0a3369c27e76edd",
          "transactionIndex": "0x33",
          "logIndex": "0x36",
          "removed": false
        }
      ],
      "status": "0x1",
      "logsBloom": "0x04000000000000000000000000000000000000000000000002000000000000000000000000000000000000000000400000000000000002000100008000000000000000000000000040000008000000000000800000000000000000000000000000000000020000000000000000000800000004000000000000000010000000000000000000000000010000000000000000000000000000400000000000010000000000000000022000008102000000000080000000000000080000000000000000000002000000100200000002000002000008000000000000000000000020000000000000000082000000000000000000000000008000000000000000000000",
      "type": "0x2",
      "effectiveGasPrice": "0x825b5659f"
    }
  ],
  "libraries": [],
  "pending": [],
  "returns": {},
  "timestamp": 1707398885,
  "chain": 11155111,
  "multi": false,
  "commit": "1bf49db"
}