{
  "transactions": [
    {
      "hash": "0x02070007a6fe1a4727abbfbc1fd487b67920b3b93fead277ef97c1cc4b294600",
      "transactionType": "CALL",
      "contractName": null,
      "contractAddress": "0xFE1B064c8443aAEdAD23500C13323714E15C929c",
      "function": "claim((uint256))",
      "arguments": [
        "(1)"
      ],
      "transaction": {
        "type": "0x02",
        "from": "0x979af411d048b453e3334c95f392012b3bbd6215",
        "to": "0xfe1b064c8443aaedad23500c13323714e15c929c",
        "gas": "0x2c219",
        "value": "0x0",
        "data": "0xf45bf01c0000000000000000000000000000000000000000000000000000000000000001",
        "nonce": "0x29",
        "accessList": []
      },
      "additionalContracts": [],
      "isFixedGasLimit": false
    }
  ],
  "receipts": [
    {
      "transactionHash": "0x02070007a6fe1a4727abbfbc1fd487b67920b3b93fead277ef97c1cc4b294600",
      "transactionIndex": "0x32",
      "blockHash": "0xc9b13ea92fcf379fa76d339e15d64c889d2640ff9c59e4965f0297e7ef0c6860",
      "blockNumber": "0x500911",
      "from": "0x979Af411D048b453E3334C95F392012B3BbD6215",
      "to": "0xFE1B064c8443aAEdAD23500C13323714E15C929c",
      "cumulativeGasUsed": "0x3632c7",
      "gasUsed": "0x1ff34",
      "contractAddress": null,
      "logs": [
        {
          "address": "0x1e26004a8AB552F980Dc8Abe99706b9a4e52a08A",
          "topics": [
            "0xddf252ad1be2c89b69c2b068fc378daa952ba7f163c4a11628f55a4df523b3ef",
            "0x0000000000000000000000002e802738c2536f8dee4d1434ccfe40118c9c515f",
            "0x0000000000000000000000009c019ef23b6199ee6292ed9a1d298c0e4a5d8905"
          ],
          "data": "0x00000000000000000000000000000000000000000000000000000000005b8d81",
          "blockHash": "0xc9b13ea92fcf379fa76d339e15d64c889d2640ff9c59e4965f0297e7ef0c6860",
          "blockNumber": "0x500911",
          "transactionHash": "0x02070007a6fe1a4727abbfbc1fd487b67920b3b93fead277ef97c1cc4b294600",
          "transactionIndex": "0x32",
          "logIndex": "0x3f",
          "removed": false
        },
        {
          "address": "0x1e26004a8AB552F980Dc8Abe99706b9a4e52a08A",
          "topics": [
            "0x4beccb90f994c31aced7a23b5611020728a23d8ec5cddd1a3e9d97b96fda8666",
            "0x0000000000000000000000002e802738c2536f8dee4d1434ccfe40118c9c515f",
            "0x0000000000000000000000009c019ef23b6199ee6292ed9a1d298c0e4a5d8905"
          ],
          "data": "0x00000000000000000000000000000000000000000000000000000000005b8d810000000000000000000000000000000000000000033b2e3c9fd0803ce8000000",
          "blockHash": "0xc9b13ea92fcf379fa76d339e15d64c889d2640ff9c59e4965f0297e7ef0c6860",
          "blockNumber": "0x500911",
          "transactionHash": "0x02070007a6fe1a4727abbfbc1fd487b67920b3b93fead277ef97c1cc4b294600",
          "transactionIndex": "0x32",
          "logIndex": "0x40",
          "removed": false
        },
        {
          "address": "0xFE1B064c8443aAEdAD23500C13323714E15C929c",
          "topics": [
            "0x7bb2b3c10797baccb6f8c4791f1edd6ca2f0d028ee0eda64b01a9a57e3a653f7",
            "0x0000000000000000000000000000000000000000000000000000000000000001"
          ],
          "data": "0x",
          "blockHash": "0xc9b13ea92fcf379fa76d339e15d64c889d2640ff9c59e4965f0297e7ef0c6860",
          "blockNumber": "0x500911",
          "transactionHash": "0x02070007a6fe1a4727abbfbc1fd487b67920b3b93fead277ef97c1cc4b294600",
          "transactionIndex": "0x32",
          "logIndex": "0x41",
          "removed": false
        }
      ],
      "status": "0x1",
      "logsBloom": "0x00000000000000000000000000000000000000000000000002000000000000000000000000000000000000000000000000004000000000000000000000040000000000000000000000000008000000001000000000040000000080040000000000000000000000000000000000000000000004000000000000000010000000400000040000000000000000000000000000000000000000000000000000000000000000000000002000008000000000000000000000000000080000000000000000000002000000100200000000000002000008000000000008000000000040000000000000000000000000000000000000000000000004001000000000000000",
      "type": "0x2",
      "effectiveGasPrice": "0x4ae0bdd70"
    }
  ],
  "libraries": [],
  "pending": [],
  "returns": {},
  "timestamp": 1707399387,
  "chain": 11155111,
  "multi": false,
  "commit": "1bf49db"
}