{
  "transactions": [
    {
      "hash": "0xb2bede51ea87f96550e51c7ea03b614b866e0acfe153ad3406e296fa4520528c",
      "transactionType": "CALL",
      "contractName": null,
      "contractAddress": "0xFE1B064c8443aAEdAD23500C13323714E15C929c",
      "function": "lendAsMarketOrder((address,uint256,uint256,bool))",
      "arguments": [
        "(0x979Af411D048b453E3334C95F392012B3BbD6215, 1709990904, 6000000, false)"
      ],
      "transaction": {
        "type": "0x02",
        "from": "0x979af411d048b453e3334c95f392012b3bbd6215",
        "to": "0xfe1b064c8443aaedad23500c13323714e15c929c",
        "gas": "0x88087",
        "value": "0x0",
        "data": "0xd54a4914000000000000000000000000979af411d048b453e3334c95f392012b3bbd62150000000000000000000000000000000000000000000000000000000065ec63f800000000000000000000000000000000000000000000000000000000005b8d800000000000000000000000000000000000000000000000000000000000000000",
        "nonce": "0x25",
        "accessList": []
      },
      "additionalContracts": [],
      "isFixedGasLimit": false
    }
  ],
  "receipts": [
    {
      "transactionHash": "0xb2bede51ea87f96550e51c7ea03b614b866e0acfe153ad3406e296fa4520528c",
      "transactionIndex": "0x17",
      "blockHash": "0xb73267b6c514e2d8a8e245c1e05a860550a6db5ae76d35bf38d59bc07ec9ced4",
      "blockNumber": "0x5008f0",
      "from": "0x979Af411D048b453E3334C95F392012B3BbD6215",
      "to": "0xFE1B064c8443aAEdAD23500C13323714E15C929c",
      "cumulativeGasUsed": "0x26fe44",
      "gasUsed": "0x5d03a",
      "contractAddress": null,
      "logs": [
        {
          "address": "0xFE1B064c8443aAEdAD23500C13323714E15C929c",
          "topics": [
            "0x663a0cbff5c6aad616ed85da590ecf9625745a33f1d99c7463504e4a7e0b9216",
            "0x000000000000000000000000979af411d048b453e3334c95f392012b3bbd6215"
          ],
          "data": "0x0000000000000000000000000000000000000000000000000000000065ec63f800000000000000000000000000000000000000000000000000000000005b8d800000000000000000000000000000000000000000000000000000000000000000",
          "blockHash": "0xb73267b6c514e2d8a8e245c1e05a860550a6db5ae76d35bf38d59bc07ec9ced4",
          "blockNumber": "0x5008f0",
          "transactionHash": "0xb2bede51ea87f96550e51c7ea03b614b866e0acfe153ad3406e296fa4520528c",
          "transactionIndex": "0x17",
          "logIndex": "0x1f",
          "removed": false
        },
        {
          "address": "0xFE1B064c8443aAEdAD23500C13323714E15C929c",
          "topics": [
            "0xd89dd5f05f70875c5ac6a2f5c06d8e59903cba951757065a2b69bf7e301f83b3",
            "0x0000000000000000000000000000000000000000000000000000000000000003",
            "0x000000000000000000000000979af411d048b453e3334c95f392012b3bbd6215",
            "0x000000000000000000000000979af411d048b453e3334c95f392012b3bbd6215"
          ],
          "data": "0x000000000000000000000000000000000000000000000000000000000026ec0000000000000000000000000000000000000000000000000012c40b5de9c51dd70000000000000000000000000000000000000000000000000000000065ec63f8",
          "blockHash": "0xb73267b6c514e2d8a8e245c1e05a860550a6db5ae76d35bf38d59bc07ec9ced4",
          "blockNumber": "0x5008f0",
          "transactionHash": "0xb2bede51ea87f96550e51c7ea03b614b866e0acfe153ad3406e296fa4520528c",
          "transactionIndex": "0x17",
          "logIndex": "0x20",
          "removed": false
        },
        {
          "address": "0xfe1C50468Aa725985597DC5F4BAEa3b7C0ef485E",
          "topics": [
            "0xddf252ad1be2c89b69c2b068fc378daa952ba7f163c4a11628f55a4df523b3ef",
            "0x0000000000000000000000000000000000000000000000000000000000000000",
            "0x000000000000000000000000979af411d048b453e3334c95f392012b3bbd6215"
          ],
          "data": "0x00000000000000000000000000000000000000000000000000000000005b919a",
          "blockHash": "0xb73267b6c514e2d8a8e245c1e05a860550a6db5ae76d35bf38d59bc07ec9ced4",
          "blockNumber": "0x5008f0",
          "transactionHash": "0xb2bede51ea87f96550e51c7ea03b614b866e0acfe153ad3406e296fa4520528c",
          "transactionIndex": "0x17",
          "logIndex": "0x21",
          "removed": false
        },
        {
          "address": "0x1e26004a8AB552F980Dc8Abe99706b9a4e52a08A",
          "topics": [
            "0xddf252ad1be2c89b69c2b068fc378daa952ba7f163c4a11628f55a4df523b3ef",
            "0x000000000000000000000000a7efde65a861bb0d4c622f79099b1cc4eaa2710a",
            "0x000000000000000000000000a7efde65a861bb0d4c622f79099b1cc4eaa2710a"
          ],
          "data": "0x000000000000000000000000000000000000000000000000000000000026ec00",
          "blockHash": "0xb73267b6c514e2d8a8e245c1e05a860550a6db5ae76d35bf38d59bc07ec9ced4",
          "blockNumber": "0x5008f0",
          "transactionHash": "0xb2bede51ea87f96550e51c7ea03b614b866e0acfe153ad3406e296fa4520528c",
          "transactionIndex": "0x17",
          "logIndex": "0x22",
          "removed": false
        },
        {
          "address": "0x1e26004a8AB552F980Dc8Abe99706b9a4e52a08A",
          "topics": [
            "0x4beccb90f994c31aced7a23b5611020728a23d8ec5cddd1a3e9d97b96fda8666",
            "0x000000000000000000000000a7efde65a861bb0d4c622f79099b1cc4eaa2710a",
            "0x000000000000000000000000a7efde65a861bb0d4c622f79099b1cc4eaa2710a"
          ],
          "data": "0x000000000000000000000000000000000000000000000000000000000026ec000000000000000000000000000000000000000000033b2e3c9fd0803ce8000000",
          "blockHash": "0xb73267b6c514e2d8a8e245c1e05a860550a6db5ae76d35bf38d59bc07ec9ced4",
          "blockNumber": "0x5008f0",
          "transactionHash": "0xb2bede51ea87f96550e51c7ea03b614b866e0acfe153ad3406e296fa4520528c",
          "transactionIndex": "0x17",
          "logIndex": "0x23",
          "removed": false
        }
      ],
      "status": "0x1",
      "logsBloom": "0x00000000000000000000000002000000000000000000000002000000000000000000000000000000000000000000000000000000020002000100008000000000000000000000000040000008000000000000800000000000000000000000000000000008020000000000000000000800000004000000000000000010000000000000000000000000010000000000000000000000000000400000000000010000000000000000022000008002000000000080000000800000080000000000400000000002000000100200000000000002000008000000000000000000000020000000000000000080000000000000000000000000000000000000000000010000",
      "type": "0x2",
      "effectiveGasPrice": "0x6b20f5e51"
    }
  ],
  "libraries": [],
  "pending": [],
  "returns": {},
  "timestamp": 1707398966,
  "chain": 11155111,
  "multi": false,
  "commit": "1bf49db"
}